:100E7E000A128A11422F03138316071487140715BB
:100E8E008715071608108810081188110812881285
:100E9E00081383120708A00020080139B100310899
:100EAE000139B10020080239B200B20C3208013902
:100EBE00B20020080439B300B30CB30C3308013967
:100ECE00B30020080839B400B40CB40CB40C3408C8
:100EDE000139B40020081039B500B50CB50CB50CAD
:100EEE00B50C35080139B50020080139B600B60930
:100EFE0036080139B60020080239B700B70CB70919
:100F0E0037080139B70020080439B800B80CB80CFE
:100F1E00B80938080139B80020080839B900B90CE9
:100F2E00B90CB90CB90939080139B90020081039C2
:100F3E00C000C00CC00CC00CC00CC0094008013968
:100F4E00C00038083505C10033083905C200310824
:100F5E003705C30041084204C40043084404C500D9
:100F6E00310838053405C600360837053805400502
:100F7E00C70046084704C80034084005C9003108B8
:100F8E003805D00032083805D10049085004D20087
:100F9E0051085204D300310837053505D400360800
:100FAE00370538053905D50054085504D6004908CB
:100FBE005104D70041084204D80034083505D90041
:100FCE0036083705380539054005E0005908600434
:100FDE00E10088014518081448188814531808159C
:100FEE0056188815571808165818881661180817B5
:020FFE00512F71
:02400E00B13FC0
:00000001FF
